{
  "contractName": "AccountTakeoverChallenge",
  "abi": [
    {
      "constant": true,
      "inputs": [],
      "name": "isComplete",
      "outputs": [
        {
          "name": "",
          "type": "bool"
        }
      ],
      "payable": false,
      "stateMutability": "view",
      "type": "function"
    },
    {
      "constant": false,
      "inputs": [],
      "name": "authenticate",
      "outputs": [],
      "payable": false,
      "stateMutability": "nonpayable",
      "type": "function"
    }
  ],
  "bytecode": "0x608060405273883c9944e456c4cdd254300bee4c716be11e9adf6000806101000a81548173ffffffffffffffffffffffffffffffffffffffff021916908373ffffffffffffffffffffffffffffffffffffffff16021790555034801561006457600080fd5b5061014e806100746000396000f30060806040526004361061004c576000357c0100000000000000000000000000000000000000000000000000000000900463ffffffff168063380c7a6714610051578063b2fa1c9e14610068575b600080fd5b34801561005d57600080fd5b50610066610097565b005b34801561007457600080fd5b5061007d61010f565b604051808215151515815260200191505060405180910390f35b6000809054906101000a900473ffffffffffffffffffffffffffffffffffffffff1673ffffffffffffffffffffffffffffffffffffffff163373ffffffffffffffffffffffffffffffffffffffff161415156100f257600080fd5b6001600060146101000a81548160ff021916908315150217905550565b600060149054906101000a900460ff16815600a165627a7a72305820f7f20f88341d09544435bda856de0b3f57a108b4352f36d25760b3206b42c5620029",
  "source": "pragma solidity ^0.4.21;\n\ncontract AccountTakeoverChallenge {\n    address owner = 0x883C9944e456C4cDd254300beE4C716bE11e9aDF;\n    bool public isComplete;\n\n    function authenticate() public {\n        require(msg.sender == owner);\n\n        isComplete = true;\n    }\n}",
  "sourcePath": "/home/jmartinez/SmartContractCTFDeploy/SmartContractCTF/contracts/AccountTakeoverChallenge.sol",
  "compiler": {
    "name": "solc",
    "version": "0.4.22+commit.4cb486ee.Emscripten.clang"
  },
  "schemaVersion": "3.4.6",
  "updatedAt": "2022-05-20T11:57:05.778Z",
  "devdoc": {
    "methods": {}
  },
  "userdoc": {
    "methods": {}
  }
}