{
  "contractName": "AccountTakeoverChallenge",
  "abi": [
    {
      "constant": true,
      "inputs": [],
      "name": "isComplete",
      "outputs": [
        {
          "name": "",
          "type": "bool"
        }
      ],
      "payable": false,
      "stateMutability": "view",
      "type": "function"
    },
    {
      "constant": false,
      "inputs": [],
      "name": "authenticate",
      "outputs": [],
      "payable": false,
      "stateMutability": "nonpayable",
      "type": "function"
    }
  ],
  "bytecode": "0x608060405273d26200f85703272e48edcc3400220b4f5662ed986000806101000a81548173ffffffffffffffffffffffffffffffffffffffff021916908373ffffffffffffffffffffffffffffffffffffffff16021790555034801561006457600080fd5b5061014e806100746000396000f30060806040526004361061004c576000357c0100000000000000000000000000000000000000000000000000000000900463ffffffff168063380c7a6714610051578063b2fa1c9e14610068575b600080fd5b34801561005d57600080fd5b50610066610097565b005b34801561007457600080fd5b5061007d61010f565b604051808215151515815260200191505060405180910390f35b6000809054906101000a900473ffffffffffffffffffffffffffffffffffffffff1673ffffffffffffffffffffffffffffffffffffffff163373ffffffffffffffffffffffffffffffffffffffff161415156100f257600080fd5b6001600060146101000a81548160ff021916908315150217905550565b600060149054906101000a900460ff16815600a165627a7a7230582033711adbb65b9bf6cf23d2b482dacc590dcc4b4d32fea883fe44ad28546f15530029",
  "source": "pragma solidity ^0.4.21;\r\n\r\ncontract AccountTakeoverChallenge {\r\n    address owner = 0xD26200f85703272e48eDcC3400220B4f5662eD98;\r\n    bool public isComplete;\r\n\r\n    function authenticate() public {\r\n        require(msg.sender == owner);\r\n\r\n        isComplete = true;\r\n    }\r\n}",
  "sourcePath": "C:\\Users\\juli-\\CTF Blockchain\\SmartContractCTF\\contracts\\AccountTakeoverChallenge.sol",
  "compiler": {
    "name": "solc",
    "version": "0.4.22+commit.4cb486ee.Linux.g++"
  },
  "schemaVersion": "3.4.4",
  "updatedAt": "2022-01-27T18:29:09.088Z",
  "devdoc": {
    "methods": {}
  },
  "userdoc": {
    "methods": {}
  }
}