{
  "contractName": "AssumeOwnershipChallenge",
  "abi": [
    {
      "constant": true,
      "inputs": [],
      "name": "isComplete",
      "outputs": [
        {
          "name": "",
          "type": "bool"
        }
      ],
      "payable": false,
      "stateMutability": "view",
      "type": "function"
    },
    {
      "constant": false,
      "inputs": [],
      "name": "AssumeOwmershipChallenge",
      "outputs": [],
      "payable": false,
      "stateMutability": "nonpayable",
      "type": "function"
    },
    {
      "constant": false,
      "inputs": [],
      "name": "authenticate",
      "outputs": [],
      "payable": false,
      "stateMutability": "nonpayable",
      "type": "function"
    }
  ],
  "bytecode": "0x608060405234801561001057600080fd5b506101b2806100206000396000f300608060405260043610610057576000357c0100000000000000000000000000000000000000000000000000000000900463ffffffff16806321aa06151461005c578063380c7a6714610073578063b2fa1c9e1461008a575b600080fd5b34801561006857600080fd5b506100716100b9565b005b34801561007f57600080fd5b506100886100fb565b005b34801561009657600080fd5b5061009f610173565b604051808215151515815260200191505060405180910390f35b336000806101000a81548173ffffffffffffffffffffffffffffffffffffffff021916908373ffffffffffffffffffffffffffffffffffffffff160217905550565b6000809054906101000a900473ffffffffffffffffffffffffffffffffffffffff1673ffffffffffffffffffffffffffffffffffffffff163373ffffffffffffffffffffffffffffffffffffffff1614151561015657600080fd5b6001600060146101000a81548160ff021916908315150217905550565b600060149054906101000a900460ff16815600a165627a7a72305820e5b50f789333d018d3a0221c48afeed9fb2fb6a229eb271e6d1739f53e6d98710029",
  "source": "pragma solidity ^0.4.21;\n\ncontract AssumeOwnershipChallenge {\n    address owner;\n    bool public isComplete;\n\n    function AssumeOwmershipChallenge() public {\n        owner = msg.sender;\n    }\n\n    function authenticate() public {\n        require(msg.sender == owner);\n\n        isComplete = true;\n    }\n}",
  "sourcePath": "/home/jmartinez/SmartContractCTFDeploy/SmartContractCTF/contracts/AssumeOwnershipChallenge.sol",
  "compiler": {
    "name": "solc",
    "version": "0.4.22+commit.4cb486ee.Emscripten.clang"
  },
  "schemaVersion": "3.4.6",
  "updatedAt": "2022-05-24T10:25:26.737Z",
  "devdoc": {
    "methods": {}
  },
  "userdoc": {
    "methods": {}
  }
}