{
  "contractName": "CTFManager",
  "abi": [
    {
      "constant": true,
      "inputs": [],
      "name": "owner",
      "outputs": [
        {
          "name": "",
          "type": "address"
        }
      ],
      "payable": false,
      "stateMutability": "view",
      "type": "function"
    },
    {
      "inputs": [],
      "payable": false,
      "stateMutability": "nonpayable",
      "type": "constructor"
    },
    {
      "constant": false,
      "inputs": [
        {
          "name": "username",
          "type": "string"
        }
      ],
      "name": "createUser",
      "outputs": [],
      "payable": false,
      "stateMutability": "nonpayable",
      "type": "function"
    },
    {
      "constant": true,
      "inputs": [],
      "name": "getUsername",
      "outputs": [
        {
          "name": "",
          "type": "string"
        }
      ],
      "payable": false,
      "stateMutability": "view",
      "type": "function"
    },
    {
      "constant": false,
      "inputs": [
        {
          "name": "challengeId",
          "type": "uint8"
        },
        {
          "name": "challengeAddr",
          "type": "address"
        }
      ],
      "name": "addChallenge",
      "outputs": [],
      "payable": false,
      "stateMutability": "nonpayable",
      "type": "function"
    },
    {
      "constant": false,
      "inputs": [
        {
          "name": "challengeId",
          "type": "uint8"
        }
      ],
      "name": "removeChallenge",
      "outputs": [],
      "payable": false,
      "stateMutability": "nonpayable",
      "type": "function"
    },
    {
      "constant": true,
      "inputs": [
        {
          "name": "challengeId",
          "type": "uint8"
        }
      ],
      "name": "getChallenge",
      "outputs": [
        {
          "name": "",
          "type": "address"
        },
        {
          "name": "",
          "type": "bool"
        }
      ],
      "payable": false,
      "stateMutability": "view",
      "type": "function"
    },
    {
      "constant": false,
      "inputs": [
        {
          "name": "challengeId",
          "type": "uint8"
        }
      ],
      "name": "checkChallenge",
      "outputs": [
        {
          "name": "",
          "type": "bool"
        }
      ],
      "payable": false,
      "stateMutability": "nonpayable",
      "type": "function"
    }
  ],
  "bytecode": "0x608060405234801561001057600080fd5b5033600160006101000a81548173ffffffffffffffffffffffffffffffffffffffff021916908373ffffffffffffffffffffffffffffffffffffffff160217905550610aa4806100616000396000f300608060405260043610610083576000357c0100000000000000000000000000000000000000000000000000000000900463ffffffff168063181e1b5b14610088578063504ccda3146100d0578063507ffba514610100578063681f3e6d146101695780638da5cb5b146101f9578063afd983bc14610250578063ec5ce859146102a0575b600080fd5b34801561009457600080fd5b506100b6600480360381019080803560ff16906020019092919050505061031b565b604051808215151515815260200191505060405180910390f35b3480156100dc57600080fd5b506100fe600480360381019080803560ff1690602001909291905050506105f5565b005b34801561010c57600080fd5b50610167600480360381019080803590602001908201803590602001908080601f016020809104026020016040519081016040528093929190818152602001838380828437820191505050505050919291929050505061068e565b005b34801561017557600080fd5b5061017e6106e7565b6040518080602001828103825283818151815260200191508051906020019080838360005b838110156101be5780820151818401526020810190506101a3565b50505050905090810190601f1680156101eb5780820380516001836020036101000a031916815260200191505b509250505060405180910390f35b34801561020557600080fd5b5061020e6107c8565b604051808273ffffffffffffffffffffffffffffffffffffffff1673ffffffffffffffffffffffffffffffffffffffff16815260200191505060405180910390f35b34801561025c57600080fd5b5061029e600480360381019080803560ff169060200190929190803573ffffffffffffffffffffffffffffffffffffffff1690602001909291905050506107ee565b005b3480156102ac57600080fd5b506102ce600480360381019080803560ff1690602001909291905050506108e2565b604051808373ffffffffffffffffffffffffffffffffffffffff1673ffffffffffffffffffffffffffffffffffffffff168152602001821515151581526020019250505060405180910390f35b6000806000905060018360ff16141561044f576000803373ffffffffffffffffffffffffffffffffffffffff1673ffffffffffffffffffffffffffffffffffffffff16815260200190815260200160002060010160008460ff1660ff16815260200190815260200160002060000160009054906101000a900473ffffffffffffffffffffffffffffffffffffffff1673ffffffffffffffffffffffffffffffffffffffff1663b2fa1c9e6040518163ffffffff167c0100000000000000000000000000000000000000000000000000000000028152600401602060405180830381600087803b15801561040d57600080fd5b505af1158015610421573d6000803e3d6000fd5b505050506040513d602081101561043757600080fd5b81019080805190602001909291905050509050610579565b60028360ff161415610578576000803373ffffffffffffffffffffffffffffffffffffffff1673ffffffffffffffffffffffffffffffffffffffff16815260200190815260200160002060010160008460ff1660ff16815260200190815260200160002060000160009054906101000a900473ffffffffffffffffffffffffffffffffffffffff1673ffffffffffffffffffffffffffffffffffffffff1663b2fa1c9e6040518163ffffffff167c0100000000000000000000000000000000000000000000000000000000028152600401602060405180830381600087803b15801561053a57600080fd5b505af115801561054e573d6000803e3d6000fd5b505050506040513d602081101561056457600080fd5b810190808051906020019092919050505090505b5b806000803373ffffffffffffffffffffffffffffffffffffffff1673ffffffffffffffffffffffffffffffffffffffff16815260200190815260200160002060010160008560ff1660ff16815260200190815260200160002060000160146101000a81548160ff02191690831515021790555080915050919050565b6000803373ffffffffffffffffffffffffffffffffffffffff1673ffffffffffffffffffffffffffffffffffffffff16815260200190815260200160002060010160008260ff1660ff168152602001908152602001600020600080820160006101000a81549073ffffffffffffffffffffffffffffffffffffffff02191690556000820160146101000a81549060ff0219169055505050565b806000803373ffffffffffffffffffffffffffffffffffffffff1673ffffffffffffffffffffffffffffffffffffffff16815260200190815260200160002060000190805190602001906106e39291906109d3565b5050565b60606000803373ffffffffffffffffffffffffffffffffffffffff1673ffffffffffffffffffffffffffffffffffffffff1681526020019081526020016000206000018054600181600116156101000203166002900480601f0160208091040260200160405190810160405280929190818152602001828054600181600116156101000203166002900480156107be5780601f10610793576101008083540402835291602001916107be565b820191906000526020600020905b8154815290600101906020018083116107a157829003601f168201915b5050505050905090565b600160009054906101000a900473ffffffffffffffffffffffffffffffffffffffff1681565b60408051908101604052808273ffffffffffffffffffffffffffffffffffffffff168152602001600015158152506000803373ffffffffffffffffffffffffffffffffffffffff1673ffffffffffffffffffffffffffffffffffffffff16815260200190815260200160002060010160008460ff1660ff16815260200190815260200160002060008201518160000160006101000a81548173ffffffffffffffffffffffffffffffffffffffff021916908373ffffffffffffffffffffffffffffffffffffffff16021790555060208201518160000160146101000a81548160ff0219169083151502179055509050505050565b6000806000803373ffffffffffffffffffffffffffffffffffffffff1673ffffffffffffffffffffffffffffffffffffffff16815260200190815260200160002060010160008460ff1660ff16815260200190815260200160002060000160009054906101000a900473ffffffffffffffffffffffffffffffffffffffff166000803373ffffffffffffffffffffffffffffffffffffffff1673ffffffffffffffffffffffffffffffffffffffff16815260200190815260200160002060010160008560ff1660ff16815260200190815260200160002060000160149054906101000a900460ff1691509150915091565b828054600181600116156101000203166002900490600052602060002090601f016020900481019282601f10610a1457805160ff1916838001178555610a42565b82800160010185558215610a42579182015b82811115610a41578251825591602001919060010190610a26565b5b509050610a4f9190610a53565b5090565b610a7591905b80821115610a71576000816000905550600101610a59565b5090565b905600a165627a7a72305820119cbbe8d4a9324c888e676eabe9297c030fa56468252ce8472f725adb8c2cf20029",
  "source": "pragma solidity ^0.4.21;\n\ninterface LotteryChallenge {\n    function isComplete() external view returns (bool);\n}\n\ninterface TokenSaleChallenge {\n    function isComplete() external view returns (bool);\n}\n\ncontract CTFManager {\n\n    // Define challenge struct\n    struct Challenge {\n        address addr;\n        bool solved;\n    }\n\n    // Define user struct\n    struct User { \n        string username;\n        mapping (uint8 => Challenge) challenges;\n    }\n\n    // Users object\n    mapping(address => User) ctfUsers;\n\n    // Define variable owner of the type address\n    address public owner;\n\n    // This function is executed at initialization and sets the owner of the contract\n    constructor() public {\n        owner = msg.sender; \n    }\n\n    // Creates or update a user.\n    function createUser(string username) public {\n        ctfUsers[msg.sender].username = username;\n    }\n\n    // Get Username\n    function getUsername() public view returns (string) {\n        return ctfUsers[msg.sender].username;\n    }\n\n    // Add challenge to user\n    function addChallenge(uint8 challengeId, address challengeAddr) public {\n        ctfUsers[msg.sender].challenges[challengeId] = Challenge({addr:challengeAddr, solved:false});\n        \n    }\n\n    // Remove challenge from user\n    function removeChallenge(uint8 challengeId) public {\n        delete(ctfUsers[msg.sender].challenges[challengeId]);\n    }\n\n    // Fetch Challenge n from user\n    function getChallenge(uint8 challengeId) public view returns (address, bool) {\n        return (\n            ctfUsers[msg.sender].challenges[challengeId].addr,\n            ctfUsers[msg.sender].challenges[challengeId].solved\n        );\n    }\n\n    // Check Challenge Solution\n    function checkChallenge(uint8 challengeId) public returns (bool) {\n        bool solved = false;\n        if(challengeId == 1){\n            solved = LotteryChallenge(ctfUsers[msg.sender].challenges[challengeId].addr).isComplete();\n        } else if (challengeId == 2){\n            solved = TokenSaleChallenge(ctfUsers[msg.sender].challenges[challengeId].addr).isComplete();\n        }\n        ctfUsers[msg.sender].challenges[challengeId].solved = solved;\n        return solved;\n    }\n    \n}",
  "sourcePath": "/home/julioxus/SmartContractCTF/contracts/CTFManager.sol",
  "compiler": {
    "name": "solc",
    "version": "0.4.22+commit.4cb486ee.Linux.g++"
  },
  "schemaVersion": "3.4.4",
  "updatedAt": "2022-01-25T13:50:50.177Z",
  "networkType": "ethereum",
  "devdoc": {
    "methods": {}
  },
  "userdoc": {
    "methods": {}
  }
}