{
  "contractName": "CTFManager",
  "abi": [
    {
      "constant": true,
      "inputs": [],
      "name": "owner",
      "outputs": [
        {
          "name": "",
          "type": "address"
        }
      ],
      "payable": false,
      "stateMutability": "view",
      "type": "function"
    },
    {
      "inputs": [],
      "payable": false,
      "stateMutability": "nonpayable",
      "type": "constructor"
    },
    {
      "constant": false,
      "inputs": [
        {
          "name": "username",
          "type": "string"
        }
      ],
      "name": "setUsername",
      "outputs": [],
      "payable": false,
      "stateMutability": "nonpayable",
      "type": "function"
    },
    {
      "constant": true,
      "inputs": [],
      "name": "getUsername",
      "outputs": [
        {
          "name": "",
          "type": "string"
        }
      ],
      "payable": false,
      "stateMutability": "view",
      "type": "function"
    },
    {
      "constant": false,
      "inputs": [
        {
          "name": "challengeId",
          "type": "uint8"
        }
      ],
      "name": "deployChallenge",
      "outputs": [],
      "payable": true,
      "stateMutability": "payable",
      "type": "function"
    },
    {
      "constant": true,
      "inputs": [
        {
          "name": "challengeId",
          "type": "uint8"
        }
      ],
      "name": "getChallenge",
      "outputs": [
        {
          "name": "",
          "type": "address"
        },
        {
          "name": "",
          "type": "bool"
        }
      ],
      "payable": false,
      "stateMutability": "view",
      "type": "function"
    },
    {
      "constant": false,
      "inputs": [
        {
          "name": "challengeId",
          "type": "uint8"
        }
      ],
      "name": "solveChallenge",
      "outputs": [
        {
          "name": "",
          "type": "string"
        }
      ],
      "payable": false,
      "stateMutability": "nonpayable",
      "type": "function"
    }
  ],
  "bytecode": "0x608060405234801561001057600080fd5b5033600160006101000a81548173ffffffffffffffffffffffffffffffffffffffff021916908373ffffffffffffffffffffffffffffffffffffffff160217905550611d82806100616000396000f300608060405260043610610078576000357c0100000000000000000000000000000000000000000000000000000000900463ffffffff16806320c457cd1461007d5780633c06f95614610126578063681f3e6d146101495780638da5cb5b146101d9578063ec5ce85914610230578063ed59313a146102ab575b600080fd5b34801561008957600080fd5b506100ab600480360381019080803560ff169060200190929190505050610314565b6040518080602001828103825283818151815260200191508051906020019080838360005b838110156100eb5780820151818401526020810190506100d0565b50505050905090810190601f1680156101185780820380516001836020036101000a031916815260200191505b509250505060405180910390f35b610147600480360381019080803560ff169060200190929190505050610812565b005b34801561015557600080fd5b5061015e610ebb565b6040518080602001828103825283818151815260200191508051906020019080838360005b8381101561019e578082015181840152602081019050610183565b50505050905090810190601f1680156101cb5780820380516001836020036101000a031916815260200191505b509250505060405180910390f35b3480156101e557600080fd5b506101ee610f9c565b604051808273ffffffffffffffffffffffffffffffffffffffff1673ffffffffffffffffffffffffffffffffffffffff16815260200191505060405180910390f35b34801561023c57600080fd5b5061025e600480360381019080803560ff169060200190929190505050610fc2565b604051808373ffffffffffffffffffffffffffffffffffffffff1673ffffffffffffffffffffffffffffffffffffffff168152602001821515151581526020019250505060405180910390f35b3480156102b757600080fd5b50610312600480360381019080803590602001908201803590602001908080601f01602080910402602001604051908101604052809392919081815260200183838082843782019150505050505091929192905050506110b3565b005b60606000806000803373ffffffffffffffffffffffffffffffffffffffff1673ffffffffffffffffffffffffffffffffffffffff16815260200190815260200160002060010160008560ff1660ff16815260200190815260200160002060000160009054906101000a900473ffffffffffffffffffffffffffffffffffffffff16915060018460ff161415610449578173ffffffffffffffffffffffffffffffffffffffff1663b2fa1c9e6040518163ffffffff167c0100000000000000000000000000000000000000000000000000000000028152600401602060405180830381600087803b15801561040757600080fd5b505af115801561041b573d6000803e3d6000fd5b505050506040513d602081101561043157600080fd5b8101908080519060200190929190505050905061065e565b60028460ff1614156104fb578173ffffffffffffffffffffffffffffffffffffffff1663b2fa1c9e6040518163ffffffff167c0100000000000000000000000000000000000000000000000000000000028152600401602060405180830381600087803b1580156104b957600080fd5b505af11580156104cd573d6000803e3d6000fd5b505050506040513d60208110156104e357600080fd5b8101908080519060200190929190505050905061065d565b60038460ff1614156105ad578173ffffffffffffffffffffffffffffffffffffffff1663b2fa1c9e6040518163ffffffff167c0100000000000000000000000000000000000000000000000000000000028152600401602060405180830381600087803b15801561056b57600080fd5b505af115801561057f573d6000803e3d6000fd5b505050506040513d602081101561059557600080fd5b8101908080519060200190929190505050905061065c565b60048460ff16141561065b578173ffffffffffffffffffffffffffffffffffffffff1663b2fa1c9e6040518163ffffffff167c0100000000000000000000000000000000000000000000000000000000028152600401602060405180830381600087803b15801561061d57600080fd5b505af1158015610631573d6000803e3d6000fd5b505050506040513d602081101561064757600080fd5b810190808051906020019092919050505090505b5b5b5b806000803373ffffffffffffffffffffffffffffffffffffffff1673ffffffffffffffffffffffffffffffffffffffff16815260200190815260200160002060010160008660ff1660ff16815260200190815260200160002060000160146101000a81548160ff02191690831515021790555080156107d2576000803373ffffffffffffffffffffffffffffffffffffffff1673ffffffffffffffffffffffffffffffffffffffff16815260200190815260200160002060010160008560ff1660ff1681526020019081526020016000206001018054600181600116156101000203166002900480601f0160208091040260200160405190810160405280929190818152602001828054600181600116156101000203166002900480156107c65780601f1061079b576101008083540402835291602001916107c6565b820191906000526020600020905b8154815290600101906020018083116107a957829003601f168201915b5050505050925061080b565b6040805190810160405280601481526020017f4368616c6c656e6765206e6f7420736f6c76656400000000000000000000000081525092505b5050919050565b60008060008060008560ff1611801561082e575060058560ff16105b151561083957600080fd5b60048560ff16101561085c57670de0b6b3a76400003414151561085b57600080fd5b5b60018560ff1614156109e757670de0b6b3a764000061087961110c565b6040518091039082f080158015610894573d6000803e3d6000fd5b50905093506060604051908101604052808573ffffffffffffffffffffffffffffffffffffffff1681526020016000151581526020016040805190810160405280601081526020017f61747a77457a6f384e52736a49323252000000000000000000000000000000008152508152506000803373ffffffffffffffffffffffffffffffffffffffff1673ffffffffffffffffffffffffffffffffffffffff16815260200190815260200160002060010160008760ff1660ff16815260200190815260200160002060008201518160000160006101000a81548173ffffffffffffffffffffffffffffffffffffffff021916908373ffffffffffffffffffffffffffffffffffffffff16021790555060208201518160000160146101000a81548160ff02191690831515021790555060408201518160010190805190602001906109de92919061111c565b50905050610eb4565b60028560ff161415610b7257670de0b6b3a7640000610a0461119c565b6040518091039082f080158015610a1f573d6000803e3d6000fd5b50905092506060604051908101604052808473ffffffffffffffffffffffffffffffffffffffff1681526020016000151581526020016040805190810160405280601081526020017f615a347841456b4e506a656a726f6a53000000000000000000000000000000008152508152506000803373ffffffffffffffffffffffffffffffffffffffff1673ffffffffffffffffffffffffffffffffffffffff16815260200190815260200160002060010160008760ff1660ff16815260200190815260200160002060008201518160000160006101000a81548173ffffffffffffffffffffffffffffffffffffffff021916908373ffffffffffffffffffffffffffffffffffffffff16021790555060208201518160000160146101000a81548160ff0219169083151502179055506040820151816001019080519060200190610b6992919061111c565b50905050610eb3565b60038560ff161415610d3457670de0b6b3a764000033610b906111ac565b808273ffffffffffffffffffffffffffffffffffffffff1673ffffffffffffffffffffffffffffffffffffffff1681526020019150506040518091039082f080158015610be1573d6000803e3d6000fd5b50905091506060604051908101604052808373ffffffffffffffffffffffffffffffffffffffff1681526020016000151581526020016040805190810160405280601081526020017f67533074757a65316274383078487145000000000000000000000000000000008152508152506000803373ffffffffffffffffffffffffffffffffffffffff1673ffffffffffffffffffffffffffffffffffffffff16815260200190815260200160002060010160008760ff1660ff16815260200190815260200160002060008201518160000160006101000a81548173ffffffffffffffffffffffffffffffffffffffff021916908373ffffffffffffffffffffffffffffffffffffffff16021790555060208201518160000160146101000a81548160ff0219169083151502179055506040820151816001019080519060200190610d2b92919061111c565b50905050610eb2565b60048560ff161415610eb157610d486111bc565b604051809103906000f080158015610d64573d6000803e3d6000fd5b5090506060604051908101604052808273ffffffffffffffffffffffffffffffffffffffff1681526020016000151581526020016040805190810160405280601081526020017f6b68564a5a4761636377555a4571795a000000000000000000000000000000008152508152506000803373ffffffffffffffffffffffffffffffffffffffff1673ffffffffffffffffffffffffffffffffffffffff16815260200190815260200160002060010160008760ff1660ff16815260200190815260200160002060008201518160000160006101000a81548173ffffffffffffffffffffffffffffffffffffffff021916908373ffffffffffffffffffffffffffffffffffffffff16021790555060208201518160000160146101000a81548160ff0219169083151502179055506040820151816001019080519060200190610eac92919061111c565b509050505b5b5b5b5050505050565b60606000803373ffffffffffffffffffffffffffffffffffffffff1673ffffffffffffffffffffffffffffffffffffffff1681526020019081526020016000206000018054600181600116156101000203166002900480601f016020809104026020016040519081016040528092919081815260200182805460018160011615610100020316600290048015610f925780601f10610f6757610100808354040283529160200191610f92565b820191906000526020600020905b815481529060010190602001808311610f7557829003601f168201915b5050505050905090565b600160009054906101000a900473ffffffffffffffffffffffffffffffffffffffff1681565b6000806000803373ffffffffffffffffffffffffffffffffffffffff1673ffffffffffffffffffffffffffffffffffffffff16815260200190815260200160002060010160008460ff1660ff16815260200190815260200160002060000160009054906101000a900473ffffffffffffffffffffffffffffffffffffffff166000803373ffffffffffffffffffffffffffffffffffffffff1673ffffffffffffffffffffffffffffffffffffffff16815260200190815260200160002060010160008560ff1660ff16815260200190815260200160002060000160149054906101000a900460ff1691509150915091565b806000803373ffffffffffffffffffffffffffffffffffffffff1673ffffffffffffffffffffffffffffffffffffffff16815260200190815260200160002060000190805190602001906111089291906111cc565b5050565b6040516101e58061127283390190565b828054600181600116156101000203166002900490600052602060002090601f016020900481019282601f1061115d57805160ff191683800117855561118b565b8280016001018555821561118b579182015b8281111561118a57825182559160200191906001019061116f565b5b509050611198919061124c565b5090565b6040516103248061145783390190565b60405161040a8061177b83390190565b6040516101d280611b8583390190565b828054600181600116156101000203166002900490600052602060002090601f016020900481019282601f1061120d57805160ff191683800117855561123b565b8280016001018555821561123b579182015b8281111561123a57825182559160200191906001019061121f565b5b509050611248919061124c565b5090565b61126e91905b8082111561126a576000816000905550600101611252565b5090565b9056006080604052670de0b6b3a76400003414151561001a57600080fd5b600143034042604051808360001916600019168152602001828152602001925050506040518091039020600190046000806101000a81548160ff021916908360ff160217905550610175806100706000396000f30060806040526004361061004c576000357c0100000000000000000000000000000000000000000000000000000000900463ffffffff1680634ba4c16b14610051578063b2fa1c9e14610074575b600080fd5b610072600480360381019080803560ff1690602001909291905050506100a3565b005b34801561008057600080fd5b50610089610128565b604051808215151515815260200191505060405180910390f35b670de0b6b3a7640000341415156100b957600080fd5b6000809054906101000a900460ff1660ff168160ff161415610125573373ffffffffffffffffffffffffffffffffffffffff166108fc671bc16d674ec800009081150290604051600060405180830381858888f19350505050158015610123573d6000803e3d6000fd5b505b50565b6000803073ffffffffffffffffffffffffffffffffffffffff1631149050905600a165627a7a72305820db2d7600f62c373d2cace31f1c0de9443b3484ce701082276182cd14553a1f4e00296080604052670de0b6b3a76400003414151561001a57600080fd5b6102fb806100296000396000f300608060405260043610610062576000357c0100000000000000000000000000000000000000000000000000000000900463ffffffff16806370a0823114610067578063b2fa1c9e146100be578063d96a094a146100ed578063e4849b321461010d575b600080fd5b34801561007357600080fd5b506100a8600480360381019080803573ffffffffffffffffffffffffffffffffffffffff16906020019092919050505061013a565b6040518082815260200191505060405180910390f35b3480156100ca57600080fd5b506100d3610152565b604051808215151515815260200191505060405180910390f35b61010b6004803603810190808035906020019092919050505061017b565b005b34801561011957600080fd5b50610138600480360381019080803590602001909291905050506101e2565b005b60006020528060005260406000206000915090505481565b6000670de0b6b3a76400003073ffffffffffffffffffffffffffffffffffffffff163110905090565b670de0b6b3a764000081023414151561019357600080fd5b806000803373ffffffffffffffffffffffffffffffffffffffff1673ffffffffffffffffffffffffffffffffffffffff1681526020019081526020016000206000828254019250508190555050565b806000803373ffffffffffffffffffffffffffffffffffffffff1673ffffffffffffffffffffffffffffffffffffffff168152602001908152602001600020541015151561022f57600080fd5b806000803373ffffffffffffffffffffffffffffffffffffffff1673ffffffffffffffffffffffffffffffffffffffff168152602001908152602001600020600082825403925050819055503373ffffffffffffffffffffffffffffffffffffffff166108fc670de0b6b3a764000083029081150290604051600060405180830381858888f193505050501580156102cb573d6000803e3d6000fd5b50505600a165627a7a72305820bdead95f94a7bfe3cfb8289bfdf585b7c8b2233399dcba526638ce6d6be1650f0029608060405233600160006101000a81548173ffffffffffffffffffffffffffffffffffffffff021916908373ffffffffffffffffffffffffffffffffffffffff1602179055506312cc0300420160035560405160208061040a83398101806040528101908080519060200190929190505050670de0b6b3a76400003414151561008757600080fd5b80600260006101000a81548173ffffffffffffffffffffffffffffffffffffffff021916908373ffffffffffffffffffffffffffffffffffffffff160217905550346000819055505061032b806100df6000396000f300608060405260043610610057576000357c0100000000000000000000000000000000000000000000000000000000900463ffffffff16806339f22f6b1461005c5780633ccfd60b14610073578063b2fa1c9e1461008a575b600080fd5b34801561006857600080fd5b506100716100b9565b005b34801561007f57600080fd5b506100886101a5565b005b34801561009657600080fd5b5061009f6102de565b604051808215151515815260200191505060405180910390f35b6000600260009054906101000a900473ffffffffffffffffffffffffffffffffffffffff1673ffffffffffffffffffffffffffffffffffffffff163373ffffffffffffffffffffffffffffffffffffffff1614151561011757600080fd5b3073ffffffffffffffffffffffffffffffffffffffff163160005403905060008111151561014457600080fd5b3373ffffffffffffffffffffffffffffffffffffffff166108fc3073ffffffffffffffffffffffffffffffffffffffff16319081150290604051600060405180830381858888f193505050501580156101a1573d6000803e3d6000fd5b5050565b600160009054906101000a900473ffffffffffffffffffffffffffffffffffffffff1673ffffffffffffffffffffffffffffffffffffffff163373ffffffffffffffffffffffffffffffffffffffff1614151561020157600080fd5b60035442101561027d573373ffffffffffffffffffffffffffffffffffffffff166108fc600a60093073ffffffffffffffffffffffffffffffffffffffff16310281151561024b57fe5b049081150290604051600060405180830381858888f19350505050158015610277573d6000803e3d6000fd5b506102dc565b3373ffffffffffffffffffffffffffffffffffffffff166108fc3073ffffffffffffffffffffffffffffffffffffffff16319081150290604051600060405180830381858888f193505050501580156102da573d6000803e3d6000fd5b505b565b6000803073ffffffffffffffffffffffffffffffffffffffff1631149050905600a165627a7a72305820b6379c15bd8bbe8a72588a3b7dc4cbb6d02164b8ddccb7c95718cfc1cce1511c0029608060405234801561001057600080fd5b506101b2806100206000396000f300608060405260043610610057576000357c0100000000000000000000000000000000000000000000000000000000900463ffffffff16806321aa06151461005c578063380c7a6714610073578063b2fa1c9e1461008a575b600080fd5b34801561006857600080fd5b506100716100b9565b005b34801561007f57600080fd5b506100886100fb565b005b34801561009657600080fd5b5061009f610173565b604051808215151515815260200191505060405180910390f35b336000806101000a81548173ffffffffffffffffffffffffffffffffffffffff021916908373ffffffffffffffffffffffffffffffffffffffff160217905550565b6000809054906101000a900473ffffffffffffffffffffffffffffffffffffffff1673ffffffffffffffffffffffffffffffffffffffff163373ffffffffffffffffffffffffffffffffffffffff1614151561015657600080fd5b6001600060146101000a81548160ff021916908315150217905550565b600060149054906101000a900460ff16815600a165627a7a72305820e5b50f789333d018d3a0221c48afeed9fb2fb6a229eb271e6d1739f53e6d98710029a165627a7a72305820fb27f0d87583fa18d8788bca4f29a61d9b243e017e2c878fe5c7f5ec2d5c6e450029",
  "compiler": {
    "name": "solc",
    "version": "0.4.22+commit.4cb486ee.Emscripten.clang"
  },
  "schemaVersion": "3.4.6",
  "updatedAt": "2022-05-24T10:25:29.670Z",
  "networkType": "ethereum",
  "devdoc": {
    "methods": {}
  },
  "userdoc": {
    "methods": {}
  }
}