{
  "contractName": "CTFManager",
  "abi": [
    {
      "constant": true,
      "inputs": [],
      "name": "owner",
      "outputs": [
        {
          "name": "",
          "type": "address"
        }
      ],
      "payable": false,
      "stateMutability": "view",
      "type": "function"
    },
    {
      "inputs": [],
      "payable": false,
      "stateMutability": "nonpayable",
      "type": "constructor"
    },
    {
      "constant": false,
      "inputs": [
        {
          "name": "username",
          "type": "string"
        }
      ],
      "name": "createUser",
      "outputs": [],
      "payable": false,
      "stateMutability": "nonpayable",
      "type": "function"
    },
    {
      "constant": true,
      "inputs": [],
      "name": "getUsername",
      "outputs": [
        {
          "name": "",
          "type": "string"
        }
      ],
      "payable": false,
      "stateMutability": "view",
      "type": "function"
    },
    {
      "constant": false,
      "inputs": [
        {
          "name": "challengeId",
          "type": "uint8"
        }
      ],
      "name": "deployChallenge",
      "outputs": [],
      "payable": true,
      "stateMutability": "payable",
      "type": "function"
    },
    {
      "constant": false,
      "inputs": [
        {
          "name": "challengeId",
          "type": "uint8"
        }
      ],
      "name": "removeChallenge",
      "outputs": [],
      "payable": false,
      "stateMutability": "nonpayable",
      "type": "function"
    },
    {
      "constant": true,
      "inputs": [
        {
          "name": "challengeId",
          "type": "uint8"
        }
      ],
      "name": "getChallenge",
      "outputs": [
        {
          "name": "",
          "type": "address"
        },
        {
          "name": "",
          "type": "bool"
        }
      ],
      "payable": false,
      "stateMutability": "view",
      "type": "function"
    },
    {
      "constant": false,
      "inputs": [
        {
          "name": "challengeId",
          "type": "uint8"
        }
      ],
      "name": "solveChallenge",
      "outputs": [],
      "payable": false,
      "stateMutability": "nonpayable",
      "type": "function"
    }
  ],
  "bytecode": "0x608060405234801561001057600080fd5b5033600160006101000a81548173ffffffffffffffffffffffffffffffffffffffff021916908373ffffffffffffffffffffffffffffffffffffffff160217905550611bf6806100616000396000f300608060405260043610610083576000357c0100000000000000000000000000000000000000000000000000000000900463ffffffff16806320c457cd146100885780633c06f956146100b8578063504ccda3146100db578063507ffba51461010b578063681f3e6d146101745780638da5cb5b14610204578063ec5ce8591461025b575b600080fd5b34801561009457600080fd5b506100b6600480360381019080803560ff1690602001909291905050506102d6565b005b6100d9600480360381019080803560ff1690602001909291905050506107e1565b005b3480156100e757600080fd5b50610109600480360381019080803560ff169060200190929190505050610d26565b005b34801561011757600080fd5b50610172600480360381019080803590602001908201803590602001908080601f0160208091040260200160405190810160405280939291908181526020018383808284378201915050505050509192919290505050610dbf565b005b34801561018057600080fd5b50610189610e18565b6040518080602001828103825283818151815260200191508051906020019080838360005b838110156101c95780820151818401526020810190506101ae565b50505050905090810190601f1680156101f65780820380516001836020036101000a031916815260200191505b509250505060405180910390f35b34801561021057600080fd5b50610219610ef9565b604051808273ffffffffffffffffffffffffffffffffffffffff1673ffffffffffffffffffffffffffffffffffffffff16815260200191505060405180910390f35b34801561026757600080fd5b50610289600480360381019080803560ff169060200190929190505050610f1f565b604051808373ffffffffffffffffffffffffffffffffffffffff1673ffffffffffffffffffffffffffffffffffffffff168152602001821515151581526020019250505060405180910390f35b60008060003373ffffffffffffffffffffffffffffffffffffffff1673ffffffffffffffffffffffffffffffffffffffff16815260200190815260200160002060010160008360ff1660ff16815260200190815260200160002060000160009054906101000a900473ffffffffffffffffffffffffffffffffffffffff16905060018260ff161415610478578073ffffffffffffffffffffffffffffffffffffffff1663b2fa1c9e6040518163ffffffff167c0100000000000000000000000000000000000000000000000000000000028152600401602060405180830381600087803b1580156103c657600080fd5b505af11580156103da573d6000803e3d6000fd5b505050506040513d60208110156103f057600080fd5b81019080805190602001909291905050506000803373ffffffffffffffffffffffffffffffffffffffff1673ffffffffffffffffffffffffffffffffffffffff16815260200190815260200160002060010160008460ff1660ff16815260200190815260200160002060000160146101000a81548160ff0219169083151502179055506107dd565b60028260ff16141561059a578073ffffffffffffffffffffffffffffffffffffffff1663b2fa1c9e6040518163ffffffff167c0100000000000000000000000000000000000000000000000000000000028152600401602060405180830381600087803b1580156104e857600080fd5b505af11580156104fc573d6000803e3d6000fd5b505050506040513d602081101561051257600080fd5b81019080805190602001909291905050506000803373ffffffffffffffffffffffffffffffffffffffff1673ffffffffffffffffffffffffffffffffffffffff16815260200190815260200160002060010160008460ff1660ff16815260200190815260200160002060000160146101000a81548160ff0219169083151502179055506107dc565b60038260ff1614156106bc578073ffffffffffffffffffffffffffffffffffffffff1663b2fa1c9e6040518163ffffffff167c0100000000000000000000000000000000000000000000000000000000028152600401602060405180830381600087803b15801561060a57600080fd5b505af115801561061e573d6000803e3d6000fd5b505050506040513d602081101561063457600080fd5b81019080805190602001909291905050506000803373ffffffffffffffffffffffffffffffffffffffff1673ffffffffffffffffffffffffffffffffffffffff16815260200190815260200160002060010160008460ff1660ff16815260200190815260200160002060000160146101000a81548160ff0219169083151502179055506107db565b60048260ff1614156107da578073ffffffffffffffffffffffffffffffffffffffff1663b2fa1c9e6040518163ffffffff167c0100000000000000000000000000000000000000000000000000000000028152600401602060405180830381600087803b15801561072c57600080fd5b505af1158015610740573d6000803e3d6000fd5b505050506040513d602081101561075657600080fd5b81019080805190602001909291905050506000803373ffffffffffffffffffffffffffffffffffffffff1673ffffffffffffffffffffffffffffffffffffffff16815260200190815260200160002060010160008460ff1660ff16815260200190815260200160002060000160146101000a81548160ff0219169083151502179055505b5b5b5b5050565b60008060008060008560ff161180156107fd575060058560ff16105b151561080857600080fd5b60048560ff16101561082b57670de0b6b3a76400003414151561082a57600080fd5b5b60018560ff16141561095d57670de0b6b3a7640000610848611010565b6040518091039082f080158015610863573d6000803e3d6000fd5b509050935060408051908101604052808573ffffffffffffffffffffffffffffffffffffffff168152602001600015158152506000803373ffffffffffffffffffffffffffffffffffffffff1673ffffffffffffffffffffffffffffffffffffffff16815260200190815260200160002060010160008760ff1660ff16815260200190815260200160002060008201518160000160006101000a81548173ffffffffffffffffffffffffffffffffffffffff021916908373ffffffffffffffffffffffffffffffffffffffff16021790555060208201518160000160146101000a81548160ff021916908315150217905550905050610d1f565b60028560ff161415610a8f57670de0b6b3a764000061097a611020565b6040518091039082f080158015610995573d6000803e3d6000fd5b509050925060408051908101604052808473ffffffffffffffffffffffffffffffffffffffff168152602001600015158152506000803373ffffffffffffffffffffffffffffffffffffffff1673ffffffffffffffffffffffffffffffffffffffff16815260200190815260200160002060010160008760ff1660ff16815260200190815260200160002060008201518160000160006101000a81548173ffffffffffffffffffffffffffffffffffffffff021916908373ffffffffffffffffffffffffffffffffffffffff16021790555060208201518160000160146101000a81548160ff021916908315150217905550905050610d1e565b60038560ff161415610bf857670de0b6b3a764000033610aad611030565b808273ffffffffffffffffffffffffffffffffffffffff1673ffffffffffffffffffffffffffffffffffffffff1681526020019150506040518091039082f080158015610afe573d6000803e3d6000fd5b509050915060408051908101604052808373ffffffffffffffffffffffffffffffffffffffff168152602001600015158152506000803373ffffffffffffffffffffffffffffffffffffffff1673ffffffffffffffffffffffffffffffffffffffff16815260200190815260200160002060010160008760ff1660ff16815260200190815260200160002060008201518160000160006101000a81548173ffffffffffffffffffffffffffffffffffffffff021916908373ffffffffffffffffffffffffffffffffffffffff16021790555060208201518160000160146101000a81548160ff021916908315150217905550905050610d1d565b60048560ff161415610d1c57610c0c611040565b604051809103906000f080158015610c28573d6000803e3d6000fd5b50905060408051908101604052808273ffffffffffffffffffffffffffffffffffffffff168152602001600015158152506000803373ffffffffffffffffffffffffffffffffffffffff1673ffffffffffffffffffffffffffffffffffffffff16815260200190815260200160002060010160008760ff1660ff16815260200190815260200160002060008201518160000160006101000a81548173ffffffffffffffffffffffffffffffffffffffff021916908373ffffffffffffffffffffffffffffffffffffffff16021790555060208201518160000160146101000a81548160ff0219169083151502179055509050505b5b5b5b5050505050565b6000803373ffffffffffffffffffffffffffffffffffffffff1673ffffffffffffffffffffffffffffffffffffffff16815260200190815260200160002060010160008260ff1660ff168152602001908152602001600020600080820160006101000a81549073ffffffffffffffffffffffffffffffffffffffff02191690556000820160146101000a81549060ff0219169055505050565b806000803373ffffffffffffffffffffffffffffffffffffffff1673ffffffffffffffffffffffffffffffffffffffff1681526020019081526020016000206000019080519060200190610e14929190611050565b5050565b60606000803373ffffffffffffffffffffffffffffffffffffffff1673ffffffffffffffffffffffffffffffffffffffff1681526020019081526020016000206000018054600181600116156101000203166002900480601f016020809104026020016040519081016040528092919081815260200182805460018160011615610100020316600290048015610eef5780601f10610ec457610100808354040283529160200191610eef565b820191906000526020600020905b815481529060010190602001808311610ed257829003601f168201915b5050505050905090565b600160009054906101000a900473ffffffffffffffffffffffffffffffffffffffff1681565b6000806000803373ffffffffffffffffffffffffffffffffffffffff1673ffffffffffffffffffffffffffffffffffffffff16815260200190815260200160002060010160008460ff1660ff16815260200190815260200160002060000160009054906101000a900473ffffffffffffffffffffffffffffffffffffffff166000803373ffffffffffffffffffffffffffffffffffffffff1673ffffffffffffffffffffffffffffffffffffffff16815260200190815260200160002060010160008560ff1660ff16815260200190815260200160002060000160149054906101000a900460ff1691509150915091565b6040516101e5806110f683390190565b604051610324806112db83390190565b60405161040a806115ff83390190565b6040516101c280611a0983390190565b828054600181600116156101000203166002900490600052602060002090601f016020900481019282601f1061109157805160ff19168380011785556110bf565b828001600101855582156110bf579182015b828111156110be5782518255916020019190600101906110a3565b5b5090506110cc91906110d0565b5090565b6110f291905b808211156110ee5760008160009055506001016110d6565b5090565b9056006080604052670de0b6b3a76400003414151561001a57600080fd5b600143034042604051808360001916600019168152602001828152602001925050506040518091039020600190046000806101000a81548160ff021916908360ff160217905550610175806100706000396000f30060806040526004361061004c576000357c0100000000000000000000000000000000000000000000000000000000900463ffffffff1680634ba4c16b14610051578063b2fa1c9e14610074575b600080fd5b610072600480360381019080803560ff1690602001909291905050506100a3565b005b34801561008057600080fd5b50610089610128565b604051808215151515815260200191505060405180910390f35b670de0b6b3a7640000341415156100b957600080fd5b6000809054906101000a900460ff1660ff168160ff161415610125573373ffffffffffffffffffffffffffffffffffffffff166108fc671bc16d674ec800009081150290604051600060405180830381858888f19350505050158015610123573d6000803e3d6000fd5b505b50565b6000803073ffffffffffffffffffffffffffffffffffffffff1631149050905600a165627a7a72305820db2d7600f62c373d2cace31f1c0de9443b3484ce701082276182cd14553a1f4e00296080604052670de0b6b3a76400003414151561001a57600080fd5b6102fb806100296000396000f300608060405260043610610062576000357c0100000000000000000000000000000000000000000000000000000000900463ffffffff16806370a0823114610067578063b2fa1c9e146100be578063d96a094a146100ed578063e4849b321461010d575b600080fd5b34801561007357600080fd5b506100a8600480360381019080803573ffffffffffffffffffffffffffffffffffffffff16906020019092919050505061013a565b6040518082815260200191505060405180910390f35b3480156100ca57600080fd5b506100d3610152565b604051808215151515815260200191505060405180910390f35b61010b6004803603810190808035906020019092919050505061017b565b005b34801561011957600080fd5b50610138600480360381019080803590602001909291905050506101e2565b005b60006020528060005260406000206000915090505481565b6000670de0b6b3a76400003073ffffffffffffffffffffffffffffffffffffffff163110905090565b670de0b6b3a764000081023414151561019357600080fd5b806000803373ffffffffffffffffffffffffffffffffffffffff1673ffffffffffffffffffffffffffffffffffffffff1681526020019081526020016000206000828254019250508190555050565b806000803373ffffffffffffffffffffffffffffffffffffffff1673ffffffffffffffffffffffffffffffffffffffff168152602001908152602001600020541015151561022f57600080fd5b806000803373ffffffffffffffffffffffffffffffffffffffff1673ffffffffffffffffffffffffffffffffffffffff168152602001908152602001600020600082825403925050819055503373ffffffffffffffffffffffffffffffffffffffff166108fc670de0b6b3a764000083029081150290604051600060405180830381858888f193505050501580156102cb573d6000803e3d6000fd5b50505600a165627a7a72305820bdead95f94a7bfe3cfb8289bfdf585b7c8b2233399dcba526638ce6d6be1650f0029608060405233600160006101000a81548173ffffffffffffffffffffffffffffffffffffffff021916908373ffffffffffffffffffffffffffffffffffffffff1602179055506312cc0300420160035560405160208061040a83398101806040528101908080519060200190929190505050670de0b6b3a76400003414151561008757600080fd5b80600260006101000a81548173ffffffffffffffffffffffffffffffffffffffff021916908373ffffffffffffffffffffffffffffffffffffffff160217905550346000819055505061032b806100df6000396000f300608060405260043610610057576000357c0100000000000000000000000000000000000000000000000000000000900463ffffffff16806339f22f6b1461005c5780633ccfd60b14610073578063b2fa1c9e1461008a575b600080fd5b34801561006857600080fd5b506100716100b9565b005b34801561007f57600080fd5b506100886101a5565b005b34801561009657600080fd5b5061009f6102de565b604051808215151515815260200191505060405180910390f35b6000600260009054906101000a900473ffffffffffffffffffffffffffffffffffffffff1673ffffffffffffffffffffffffffffffffffffffff163373ffffffffffffffffffffffffffffffffffffffff1614151561011757600080fd5b3073ffffffffffffffffffffffffffffffffffffffff163160005403905060008111151561014457600080fd5b3373ffffffffffffffffffffffffffffffffffffffff166108fc3073ffffffffffffffffffffffffffffffffffffffff16319081150290604051600060405180830381858888f193505050501580156101a1573d6000803e3d6000fd5b5050565b600160009054906101000a900473ffffffffffffffffffffffffffffffffffffffff1673ffffffffffffffffffffffffffffffffffffffff163373ffffffffffffffffffffffffffffffffffffffff1614151561020157600080fd5b60035442101561027d573373ffffffffffffffffffffffffffffffffffffffff166108fc600a60093073ffffffffffffffffffffffffffffffffffffffff16310281151561024b57fe5b049081150290604051600060405180830381858888f19350505050158015610277573d6000803e3d6000fd5b506102dc565b3373ffffffffffffffffffffffffffffffffffffffff166108fc3073ffffffffffffffffffffffffffffffffffffffff16319081150290604051600060405180830381858888f193505050501580156102da573d6000803e3d6000fd5b505b565b6000803073ffffffffffffffffffffffffffffffffffffffff1631149050905600a165627a7a72305820b6379c15bd8bbe8a72588a3b7dc4cbb6d02164b8ddccb7c95718cfc1cce1511c0029608060405273d26200f85703272e48edcc3400220b4f5662ed986000806101000a81548173ffffffffffffffffffffffffffffffffffffffff021916908373ffffffffffffffffffffffffffffffffffffffff16021790555034801561006457600080fd5b5061014e806100746000396000f30060806040526004361061004c576000357c0100000000000000000000000000000000000000000000000000000000900463ffffffff168063380c7a6714610051578063b2fa1c9e14610068575b600080fd5b34801561005d57600080fd5b50610066610097565b005b34801561007457600080fd5b5061007d61010f565b604051808215151515815260200191505060405180910390f35b6000809054906101000a900473ffffffffffffffffffffffffffffffffffffffff1673ffffffffffffffffffffffffffffffffffffffff163373ffffffffffffffffffffffffffffffffffffffff161415156100f257600080fd5b6001600060146101000a81548160ff021916908315150217905550565b600060149054906101000a900460ff16815600a165627a7a7230582053f7b9424ac275892ee075740c5353fd833b91b4572aad02331ef9141c8889be0029a165627a7a7230582099ccb4fffac8120107d4fd3d4624ec9c862db9ff4cd851c93fa22906d097606e0029",
  "source": "pragma solidity ^0.4.21;\n\nimport \"./LotteryChallenge.sol\";\nimport \"./TokenSaleChallenge.sol\";\nimport \"./RetirementFundChallenge.sol\";\nimport \"./AccountTakeoverChallenge.sol\";\n\ncontract CTFManager {\n\n    // Define challenge struct\n    struct Challenge {\n        address addr;\n        bool solved;\n    }\n\n    // Define user struct\n    struct User { \n        string username;\n        mapping (uint8 => Challenge) challenges;\n    }\n\n    // Users object\n    mapping(address => User) ctfUsers;\n\n    // Define variable owner of the type address\n    address public owner;\n\n    // This function is executed at initialization and sets the owner of the contract\n    constructor() public {\n        owner = msg.sender; \n    }\n\n    // Creates or update a user.\n    function createUser(string username) public {\n        ctfUsers[msg.sender].username = username;\n    }\n\n    // Get Username\n    function getUsername() public view returns (string) {\n        return ctfUsers[msg.sender].username;\n    }\n\n    // Deploy a new challenge for the user\n    function deployChallenge(uint8 challengeId) public payable {\n        require(challengeId > 0 && challengeId < 5);\n\n        if (challengeId < 4 ){\n            require(msg.value == 1 ether);\n        }\n\n        if(challengeId == 1){\n            LotteryChallenge lotteryInstance = (new LotteryChallenge).value(1 ether)();\n            ctfUsers[msg.sender].challenges[challengeId] = Challenge({addr:address(lotteryInstance), solved:false});\n        } else if (challengeId == 2){\n            TokenSaleChallenge tokenSaleInstance = (new TokenSaleChallenge).value(1 ether)();\n            ctfUsers[msg.sender].challenges[challengeId] = Challenge({addr:address(tokenSaleInstance), solved:false});\n        } else if (challengeId == 3){\n            RetirementFundChallenge retirementFundInstance = (new RetirementFundChallenge).value(1 ether)(msg.sender);\n            ctfUsers[msg.sender].challenges[challengeId] = Challenge({addr:address(retirementFundInstance), solved:false});\n        } else if (challengeId == 4){\n            AccountTakeoverChallenge accountTakeoverInstance = new AccountTakeoverChallenge();\n            ctfUsers[msg.sender].challenges[challengeId] = Challenge({addr:address(accountTakeoverInstance), solved:false});\n        }\n        \n    }\n\n    // Remove challenge from user\n    function removeChallenge(uint8 challengeId) public {\n        delete(ctfUsers[msg.sender].challenges[challengeId]);\n    }\n\n    // Fetch Challenge n from user\n    function getChallenge(uint8 challengeId) public view returns (address, bool) {\n        return (\n            ctfUsers[msg.sender].challenges[challengeId].addr,\n            ctfUsers[msg.sender].challenges[challengeId].solved\n        );\n    }\n\n    // Update the challenge completion state\n    function solveChallenge(uint8 challengeId) public {\n        address challengeAddr = ctfUsers[msg.sender].challenges[challengeId].addr;\n\n        if(challengeId == 1){\n            ctfUsers[msg.sender].challenges[challengeId].solved = LotteryChallenge(challengeAddr).isComplete();\n        } else if (challengeId == 2){\n            ctfUsers[msg.sender].challenges[challengeId].solved = TokenSaleChallenge(challengeAddr).isComplete();\n        } else if (challengeId == 3){\n            ctfUsers[msg.sender].challenges[challengeId].solved = RetirementFundChallenge(challengeAddr).isComplete();\n        } else if (challengeId == 4){\n            ctfUsers[msg.sender].challenges[challengeId].solved = AccountTakeoverChallenge(challengeAddr).isComplete();\n        }\n    }\n    \n}",
  "sourcePath": "/home/julioxus/SmartContractCTF/contracts/CTFManager.sol",
  "compiler": {
    "name": "solc",
    "version": "0.4.22+commit.4cb486ee.Linux.g++"
  },
  "schemaVersion": "3.4.4",
  "updatedAt": "2022-01-27T15:23:51.641Z",
  "networkType": "ethereum",
  "devdoc": {
    "methods": {}
  },
  "userdoc": {
    "methods": {}
  }
}