{
  "contractName": "CTFManager",
  "abi": [
    {
      "constant": true,
      "inputs": [],
      "name": "owner",
      "outputs": [
        {
          "name": "",
          "type": "address"
        }
      ],
      "payable": false,
      "stateMutability": "view",
      "type": "function"
    },
    {
      "inputs": [],
      "payable": false,
      "stateMutability": "nonpayable",
      "type": "constructor"
    },
    {
      "constant": false,
      "inputs": [
        {
          "name": "username",
          "type": "string"
        }
      ],
      "name": "createUser",
      "outputs": [],
      "payable": false,
      "stateMutability": "nonpayable",
      "type": "function"
    },
    {
      "constant": true,
      "inputs": [],
      "name": "getUsername",
      "outputs": [
        {
          "name": "",
          "type": "string"
        }
      ],
      "payable": false,
      "stateMutability": "view",
      "type": "function"
    },
    {
      "constant": false,
      "inputs": [
        {
          "name": "challengeId",
          "type": "uint8"
        },
        {
          "name": "challengeAddr",
          "type": "address"
        }
      ],
      "name": "addChallenge",
      "outputs": [],
      "payable": false,
      "stateMutability": "nonpayable",
      "type": "function"
    },
    {
      "constant": false,
      "inputs": [
        {
          "name": "challengeId",
          "type": "uint8"
        }
      ],
      "name": "removeChallenge",
      "outputs": [],
      "payable": false,
      "stateMutability": "nonpayable",
      "type": "function"
    },
    {
      "constant": true,
      "inputs": [
        {
          "name": "challengeId",
          "type": "uint8"
        }
      ],
      "name": "getChallenge",
      "outputs": [
        {
          "name": "",
          "type": "address"
        },
        {
          "name": "",
          "type": "bool"
        }
      ],
      "payable": false,
      "stateMutability": "view",
      "type": "function"
    },
    {
      "constant": false,
      "inputs": [
        {
          "name": "challengeId",
          "type": "uint8"
        }
      ],
      "name": "solveChallenge",
      "outputs": [],
      "payable": false,
      "stateMutability": "nonpayable",
      "type": "function"
    }
  ],
  "bytecode": "0x608060405234801561001057600080fd5b5033600160006101000a81548173ffffffffffffffffffffffffffffffffffffffff021916908373ffffffffffffffffffffffffffffffffffffffff160217905550610a77806100616000396000f300608060405260043610610083576000357c0100000000000000000000000000000000000000000000000000000000900463ffffffff16806320c457cd14610088578063504ccda3146100b8578063507ffba5146100e8578063681f3e6d146101515780638da5cb5b146101e1578063afd983bc14610238578063ec5ce85914610288575b600080fd5b34801561009457600080fd5b506100b6600480360381019080803560ff169060200190929190505050610303565b005b3480156100c457600080fd5b506100e6600480360381019080803560ff1690602001909291905050506105c8565b005b3480156100f457600080fd5b5061014f600480360381019080803590602001908201803590602001908080601f0160208091040260200160405190810160405280939291908181526020018383808284378201915050505050509192919290505050610661565b005b34801561015d57600080fd5b506101666106ba565b6040518080602001828103825283818151815260200191508051906020019080838360005b838110156101a657808201518184015260208101905061018b565b50505050905090810190601f1680156101d35780820380516001836020036101000a031916815260200191505b509250505060405180910390f35b3480156101ed57600080fd5b506101f661079b565b604051808273ffffffffffffffffffffffffffffffffffffffff1673ffffffffffffffffffffffffffffffffffffffff16815260200191505060405180910390f35b34801561024457600080fd5b50610286600480360381019080803560ff169060200190929190803573ffffffffffffffffffffffffffffffffffffffff1690602001909291905050506107c1565b005b34801561029457600080fd5b506102b6600480360381019080803560ff1690602001909291905050506108b5565b604051808373ffffffffffffffffffffffffffffffffffffffff1673ffffffffffffffffffffffffffffffffffffffff168152602001821515151581526020019250505060405180910390f35b60008060003373ffffffffffffffffffffffffffffffffffffffff1673ffffffffffffffffffffffffffffffffffffffff16815260200190815260200160002060010160008360ff1660ff16815260200190815260200160002060000160009054906101000a900473ffffffffffffffffffffffffffffffffffffffff16905060018260ff1614156104a5578073ffffffffffffffffffffffffffffffffffffffff1663b2fa1c9e6040518163ffffffff167c0100000000000000000000000000000000000000000000000000000000028152600401602060405180830381600087803b1580156103f357600080fd5b505af1158015610407573d6000803e3d6000fd5b505050506040513d602081101561041d57600080fd5b81019080805190602001909291905050506000803373ffffffffffffffffffffffffffffffffffffffff1673ffffffffffffffffffffffffffffffffffffffff16815260200190815260200160002060010160008460ff1660ff16815260200190815260200160002060000160146101000a81548160ff0219169083151502179055506105c4565b60028260ff1614156105c3578073ffffffffffffffffffffffffffffffffffffffff1663b2fa1c9e6040518163ffffffff167c0100000000000000000000000000000000000000000000000000000000028152600401602060405180830381600087803b15801561051557600080fd5b505af1158015610529573d6000803e3d6000fd5b505050506040513d602081101561053f57600080fd5b81019080805190602001909291905050506000803373ffffffffffffffffffffffffffffffffffffffff1673ffffffffffffffffffffffffffffffffffffffff16815260200190815260200160002060010160008460ff1660ff16815260200190815260200160002060000160146101000a81548160ff0219169083151502179055505b5b5050565b6000803373ffffffffffffffffffffffffffffffffffffffff1673ffffffffffffffffffffffffffffffffffffffff16815260200190815260200160002060010160008260ff1660ff168152602001908152602001600020600080820160006101000a81549073ffffffffffffffffffffffffffffffffffffffff02191690556000820160146101000a81549060ff0219169055505050565b806000803373ffffffffffffffffffffffffffffffffffffffff1673ffffffffffffffffffffffffffffffffffffffff16815260200190815260200160002060000190805190602001906106b69291906109a6565b5050565b60606000803373ffffffffffffffffffffffffffffffffffffffff1673ffffffffffffffffffffffffffffffffffffffff1681526020019081526020016000206000018054600181600116156101000203166002900480601f0160208091040260200160405190810160405280929190818152602001828054600181600116156101000203166002900480156107915780601f1061076657610100808354040283529160200191610791565b820191906000526020600020905b81548152906001019060200180831161077457829003601f168201915b5050505050905090565b600160009054906101000a900473ffffffffffffffffffffffffffffffffffffffff1681565b60408051908101604052808273ffffffffffffffffffffffffffffffffffffffff168152602001600015158152506000803373ffffffffffffffffffffffffffffffffffffffff1673ffffffffffffffffffffffffffffffffffffffff16815260200190815260200160002060010160008460ff1660ff16815260200190815260200160002060008201518160000160006101000a81548173ffffffffffffffffffffffffffffffffffffffff021916908373ffffffffffffffffffffffffffffffffffffffff16021790555060208201518160000160146101000a81548160ff0219169083151502179055509050505050565b6000806000803373ffffffffffffffffffffffffffffffffffffffff1673ffffffffffffffffffffffffffffffffffffffff16815260200190815260200160002060010160008460ff1660ff16815260200190815260200160002060000160009054906101000a900473ffffffffffffffffffffffffffffffffffffffff166000803373ffffffffffffffffffffffffffffffffffffffff1673ffffffffffffffffffffffffffffffffffffffff16815260200190815260200160002060010160008560ff1660ff16815260200190815260200160002060000160149054906101000a900460ff1691509150915091565b828054600181600116156101000203166002900490600052602060002090601f016020900481019282601f106109e757805160ff1916838001178555610a15565b82800160010185558215610a15579182015b82811115610a145782518255916020019190600101906109f9565b5b509050610a229190610a26565b5090565b610a4891905b80821115610a44576000816000905550600101610a2c565b5090565b905600a165627a7a72305820e1690e6bd05fa8649d62e9cdd6505f360764d271354c96113e46bf8dff3348b00029",
  "source": "pragma solidity ^0.4.21;\n\ninterface LotteryChallenge {\n    function isComplete() external view returns (bool);\n}\n\ninterface TokenSaleChallenge {\n    function isComplete() external view returns (bool);\n}\n\ncontract CTFManager {\n\n    // Define challenge struct\n    struct Challenge {\n        address addr;\n        bool solved;\n    }\n\n    // Define user struct\n    struct User { \n        string username;\n        mapping (uint8 => Challenge) challenges;\n    }\n\n    // Users object\n    mapping(address => User) ctfUsers;\n\n    // Define variable owner of the type address\n    address public owner;\n\n    // This function is executed at initialization and sets the owner of the contract\n    constructor() public {\n        owner = msg.sender; \n    }\n\n    // Creates or update a user.\n    function createUser(string username) public {\n        ctfUsers[msg.sender].username = username;\n    }\n\n    // Get Username\n    function getUsername() public view returns (string) {\n        return ctfUsers[msg.sender].username;\n    }\n\n    // Add challenge to user\n    function addChallenge(uint8 challengeId, address challengeAddr) public {\n        ctfUsers[msg.sender].challenges[challengeId] = Challenge({addr:challengeAddr, solved:false});\n        \n    }\n\n    // Remove challenge from user\n    function removeChallenge(uint8 challengeId) public {\n        delete(ctfUsers[msg.sender].challenges[challengeId]);\n    }\n\n    // Fetch Challenge n from user\n    function getChallenge(uint8 challengeId) public view returns (address, bool) {\n        return (\n            ctfUsers[msg.sender].challenges[challengeId].addr,\n            ctfUsers[msg.sender].challenges[challengeId].solved\n        );\n    }\n\n    function solveChallenge(uint8 challengeId) public {\n        address challengeAddr = ctfUsers[msg.sender].challenges[challengeId].addr;\n\n        if(challengeId == 1){\n            ctfUsers[msg.sender].challenges[challengeId].solved = LotteryChallenge(challengeAddr).isComplete();\n        } else if (challengeId == 2){\n            ctfUsers[msg.sender].challenges[challengeId].solved = TokenSaleChallenge(challengeAddr).isComplete();\n        }\n    }\n    \n}",
  "sourcePath": "/home/julioxus/SmartContractCTF/contracts/CTFManager.sol",
  "compiler": {
    "name": "solc",
    "version": "0.4.22+commit.4cb486ee.Linux.g++"
  },
  "schemaVersion": "3.4.4",
  "updatedAt": "2022-01-26T14:55:09.845Z",
  "networkType": "ethereum",
  "devdoc": {
    "methods": {}
  },
  "userdoc": {
    "methods": {}
  }
}