{
  "contractName": "RetirementFundChallenge",
  "abi": [
    {
      "inputs": [
        {
          "name": "player",
          "type": "address"
        }
      ],
      "payable": true,
      "stateMutability": "payable",
      "type": "constructor"
    },
    {
      "constant": true,
      "inputs": [],
      "name": "isComplete",
      "outputs": [
        {
          "name": "",
          "type": "bool"
        }
      ],
      "payable": false,
      "stateMutability": "view",
      "type": "function"
    },
    {
      "constant": false,
      "inputs": [],
      "name": "withdraw",
      "outputs": [],
      "payable": false,
      "stateMutability": "nonpayable",
      "type": "function"
    },
    {
      "constant": false,
      "inputs": [],
      "name": "collectPenalty",
      "outputs": [],
      "payable": false,
      "stateMutability": "nonpayable",
      "type": "function"
    }
  ],
  "bytecode": "0x608060405233600160006101000a81548173ffffffffffffffffffffffffffffffffffffffff021916908373ffffffffffffffffffffffffffffffffffffffff1602179055506312cc0300420160035560405160208061040a83398101806040528101908080519060200190929190505050670de0b6b3a76400003414151561008757600080fd5b80600260006101000a81548173ffffffffffffffffffffffffffffffffffffffff021916908373ffffffffffffffffffffffffffffffffffffffff160217905550346000819055505061032b806100df6000396000f300608060405260043610610057576000357c0100000000000000000000000000000000000000000000000000000000900463ffffffff16806339f22f6b1461005c5780633ccfd60b14610073578063b2fa1c9e1461008a575b600080fd5b34801561006857600080fd5b506100716100b9565b005b34801561007f57600080fd5b506100886101a5565b005b34801561009657600080fd5b5061009f6102de565b604051808215151515815260200191505060405180910390f35b6000600260009054906101000a900473ffffffffffffffffffffffffffffffffffffffff1673ffffffffffffffffffffffffffffffffffffffff163373ffffffffffffffffffffffffffffffffffffffff1614151561011757600080fd5b3073ffffffffffffffffffffffffffffffffffffffff163160005403905060008111151561014457600080fd5b3373ffffffffffffffffffffffffffffffffffffffff166108fc3073ffffffffffffffffffffffffffffffffffffffff16319081150290604051600060405180830381858888f193505050501580156101a1573d6000803e3d6000fd5b5050565b600160009054906101000a900473ffffffffffffffffffffffffffffffffffffffff1673ffffffffffffffffffffffffffffffffffffffff163373ffffffffffffffffffffffffffffffffffffffff1614151561020157600080fd5b60035442101561027d573373ffffffffffffffffffffffffffffffffffffffff166108fc600a60093073ffffffffffffffffffffffffffffffffffffffff16310281151561024b57fe5b049081150290604051600060405180830381858888f19350505050158015610277573d6000803e3d6000fd5b506102dc565b3373ffffffffffffffffffffffffffffffffffffffff166108fc3073ffffffffffffffffffffffffffffffffffffffff16319081150290604051600060405180830381858888f193505050501580156102da573d6000803e3d6000fd5b505b565b6000803073ffffffffffffffffffffffffffffffffffffffff1631149050905600a165627a7a7230582031f50b45184ab2e012af3d14a47d6ad2e95611e6374ad73378ef8f423e5aa61e0029",
  "source": "pragma solidity ^0.4.21;\r\n\r\ncontract RetirementFundChallenge {\r\n    uint256 startBalance;\r\n    address owner = msg.sender;\r\n    address beneficiary;\r\n    uint256 expiration = now + 10 years;\r\n\r\n    constructor(address player) public payable {\r\n        require(msg.value == 1 ether);\r\n\r\n        beneficiary = player;\r\n        startBalance = msg.value;\r\n    }\r\n\r\n    function isComplete() public view returns (bool) {\r\n        return address(this).balance == 0;\r\n    }\r\n\r\n    function withdraw() public {\r\n        require(msg.sender == owner);\r\n\r\n        if (now < expiration) {\r\n            // early withdrawal incurs a 10% penalty\r\n            msg.sender.transfer(address(this).balance * 9 / 10);\r\n        } else {\r\n            msg.sender.transfer(address(this).balance);\r\n        }\r\n    }\r\n\r\n    function collectPenalty() public {\r\n        require(msg.sender == beneficiary);\r\n\r\n        uint256 withdrawn = startBalance - address(this).balance;\r\n\r\n        // an early withdrawal occurred\r\n        require(withdrawn > 0);\r\n\r\n        // penalty is what's left\r\n        msg.sender.transfer(address(this).balance);\r\n    }\r\n}",
  "sourcePath": "C:\\Users\\juli-\\CTF Blockchain\\SmartContractCTF\\contracts\\RetirementFundChallenge.sol",
  "compiler": {
    "name": "solc",
    "version": "0.4.22+commit.4cb486ee.Linux.g++"
  },
  "schemaVersion": "3.4.4",
  "updatedAt": "2022-01-27T18:29:09.118Z",
  "devdoc": {
    "methods": {}
  },
  "userdoc": {
    "methods": {}
  }
}