{
  "contractName": "CTFManager",
  "abi": [
    {
      "inputs": [],
      "payable": false,
      "stateMutability": "nonpayable",
      "type": "constructor"
    },
    {
      "constant": false,
      "inputs": [
        {
          "name": "username",
          "type": "string"
        }
      ],
      "name": "createUser",
      "outputs": [],
      "payable": false,
      "stateMutability": "nonpayable",
      "type": "function"
    },
    {
      "constant": true,
      "inputs": [],
      "name": "getUsername",
      "outputs": [
        {
          "name": "",
          "type": "string"
        }
      ],
      "payable": false,
      "stateMutability": "view",
      "type": "function"
    },
    {
      "constant": false,
      "inputs": [
        {
          "name": "challengeId",
          "type": "uint8"
        },
        {
          "name": "challengeAddr",
          "type": "address"
        }
      ],
      "name": "addChallenge",
      "outputs": [],
      "payable": false,
      "stateMutability": "nonpayable",
      "type": "function"
    },
    {
      "constant": false,
      "inputs": [
        {
          "name": "challengeId",
          "type": "uint8"
        }
      ],
      "name": "removeChallenge",
      "outputs": [],
      "payable": false,
      "stateMutability": "nonpayable",
      "type": "function"
    },
    {
      "constant": true,
      "inputs": [
        {
          "name": "challengeId",
          "type": "uint8"
        }
      ],
      "name": "getChallenge",
      "outputs": [
        {
          "name": "",
          "type": "address"
        },
        {
          "name": "",
          "type": "bool"
        }
      ],
      "payable": false,
      "stateMutability": "view",
      "type": "function"
    },
    {
      "constant": false,
      "inputs": [
        {
          "name": "challengeId",
          "type": "uint8"
        }
      ],
      "name": "checkChallenge",
      "outputs": [],
      "payable": false,
      "stateMutability": "nonpayable",
      "type": "function"
    }
  ],
  "bytecode": "0x608060405234801561001057600080fd5b5033600160006101000a81548173ffffffffffffffffffffffffffffffffffffffff021916908373ffffffffffffffffffffffffffffffffffffffff1602179055506108b9806100616000396000f300608060405260043610610078576000357c0100000000000000000000000000000000000000000000000000000000900463ffffffff168063181e1b5b1461007d578063504ccda3146100ad578063507ffba5146100dd578063681f3e6d14610146578063afd983bc146101d6578063ec5ce85914610226575b600080fd5b34801561008957600080fd5b506100ab600480360381019080803560ff1690602001909291905050506102a1565b005b3480156100b957600080fd5b506100db600480360381019080803560ff169060200190929190505050610430565b005b3480156100e957600080fd5b50610144600480360381019080803590602001908201803590602001908080601f01602080910402602001604051908101604052809392919081815260200183838082843782019150505050505091929192905050506104c9565b005b34801561015257600080fd5b5061015b610522565b6040518080602001828103825283818151815260200191508051906020019080838360005b8381101561019b578082015181840152602081019050610180565b50505050905090810190601f1680156101c85780820380516001836020036101000a031916815260200191505b509250505060405180910390f35b3480156101e257600080fd5b50610224600480360381019080803560ff169060200190929190803573ffffffffffffffffffffffffffffffffffffffff169060200190929190505050610603565b005b34801561023257600080fd5b50610254600480360381019080803560ff1690602001909291905050506106f7565b604051808373ffffffffffffffffffffffffffffffffffffffff1673ffffffffffffffffffffffffffffffffffffffff168152602001821515151581526020019250505060405180910390f35b6000803373ffffffffffffffffffffffffffffffffffffffff1673ffffffffffffffffffffffffffffffffffffffff16815260200190815260200160002060010160008260ff1660ff16815260200190815260200160002060000160009054906101000a900473ffffffffffffffffffffffffffffffffffffffff1673ffffffffffffffffffffffffffffffffffffffff1663b2fa1c9e6040518163ffffffff167c0100000000000000000000000000000000000000000000000000000000028152600401602060405180830381600087803b15801561038057600080fd5b505af1158015610394573d6000803e3d6000fd5b505050506040513d60208110156103aa57600080fd5b81019080805190602001909291905050506000803373ffffffffffffffffffffffffffffffffffffffff1673ffffffffffffffffffffffffffffffffffffffff16815260200190815260200160002060010160008360ff1660ff16815260200190815260200160002060000160146101000a81548160ff02191690831515021790555050565b6000803373ffffffffffffffffffffffffffffffffffffffff1673ffffffffffffffffffffffffffffffffffffffff16815260200190815260200160002060010160008260ff1660ff168152602001908152602001600020600080820160006101000a81549073ffffffffffffffffffffffffffffffffffffffff02191690556000820160146101000a81549060ff0219169055505050565b806000803373ffffffffffffffffffffffffffffffffffffffff1673ffffffffffffffffffffffffffffffffffffffff168152602001908152602001600020600001908051906020019061051e9291906107e8565b5050565b60606000803373ffffffffffffffffffffffffffffffffffffffff1673ffffffffffffffffffffffffffffffffffffffff1681526020019081526020016000206000018054600181600116156101000203166002900480601f0160208091040260200160405190810160405280929190818152602001828054600181600116156101000203166002900480156105f95780601f106105ce576101008083540402835291602001916105f9565b820191906000526020600020905b8154815290600101906020018083116105dc57829003601f168201915b5050505050905090565b60408051908101604052808273ffffffffffffffffffffffffffffffffffffffff168152602001600015158152506000803373ffffffffffffffffffffffffffffffffffffffff1673ffffffffffffffffffffffffffffffffffffffff16815260200190815260200160002060010160008460ff1660ff16815260200190815260200160002060008201518160000160006101000a81548173ffffffffffffffffffffffffffffffffffffffff021916908373ffffffffffffffffffffffffffffffffffffffff16021790555060208201518160000160146101000a81548160ff0219169083151502179055509050505050565b6000806000803373ffffffffffffffffffffffffffffffffffffffff1673ffffffffffffffffffffffffffffffffffffffff16815260200190815260200160002060010160008460ff1660ff16815260200190815260200160002060000160009054906101000a900473ffffffffffffffffffffffffffffffffffffffff166000803373ffffffffffffffffffffffffffffffffffffffff1673ffffffffffffffffffffffffffffffffffffffff16815260200190815260200160002060010160008560ff1660ff16815260200190815260200160002060000160149054906101000a900460ff1691509150915091565b828054600181600116156101000203166002900490600052602060002090601f016020900481019282601f1061082957805160ff1916838001178555610857565b82800160010185558215610857579182015b8281111561085657825182559160200191906001019061083b565b5b5090506108649190610868565b5090565b61088a91905b8082111561088657600081600090555060010161086e565b5090565b905600a165627a7a72305820e39f35a59c11cdf26394d37f6616ae3237949aadbcd91428efdcf5c636668bf60029",
  "source": "pragma solidity ^0.4.21;\r\n\r\ninterface LotteryChallenge {\r\n    function isComplete() external view returns (bool);\r\n}\r\n\r\ncontract CTFManager {\r\n\r\n    // Define challenge struct\r\n    struct Challenge {\r\n        address addr;\r\n        bool solved;\r\n    }\r\n\r\n    // Define user struct\r\n    struct User { \r\n        string username;\r\n        mapping (uint8 => Challenge) challenges;\r\n    }\r\n\r\n    // Users object\r\n    mapping(address => User) ctfUsers;\r\n\r\n    // Define variable owner of the type address\r\n    address owner;\r\n\r\n    // This function is executed at initialization and sets the owner of the contract\r\n    constructor() public {\r\n        owner = msg.sender; \r\n    }\r\n\r\n    // Creates or update a user.\r\n    function createUser(string username) public {\r\n        ctfUsers[msg.sender].username = username;\r\n    }\r\n\r\n    // Get Username\r\n    function getUsername() public view returns (string) {\r\n        return ctfUsers[msg.sender].username;\r\n    }\r\n\r\n    // Add challenge to user\r\n    function addChallenge(uint8 challengeId, address challengeAddr) public {\r\n        ctfUsers[msg.sender].challenges[challengeId] = Challenge({addr:challengeAddr, solved:false});\r\n    }\r\n\r\n    // Remove challenge from user\r\n    function removeChallenge(uint8 challengeId) public {\r\n        delete(ctfUsers[msg.sender].challenges[challengeId]);\r\n    }\r\n\r\n    // Fetch Challenge n from user\r\n    function getChallenge(uint8 challengeId) public view returns (address, bool) {\r\n        return (\r\n            ctfUsers[msg.sender].challenges[challengeId].addr,\r\n            ctfUsers[msg.sender].challenges[challengeId].solved\r\n        );\r\n    }\r\n\r\n    // Check Challenge Solution\r\n    function checkChallenge(uint8 challengeId) public {\r\n        ctfUsers[msg.sender].challenges[challengeId].solved = LotteryChallenge(ctfUsers[msg.sender].challenges[challengeId].addr).isComplete();\r\n    }\r\n    \r\n}",
  "sourcePath": "C:\\Users\\juli-\\CTF Blockchain\\ctf-challenges\\contracts\\CTFManager.sol",
  "compiler": {
    "name": "solc",
    "version": "0.4.26+commit.4563c3fc.Emscripten.clang"
  },
  "schemaVersion": "3.4.4",
  "updatedAt": "2022-01-17T18:55:33.518Z",
  "networkType": "ethereum",
  "devdoc": {
    "methods": {}
  },
  "userdoc": {
    "methods": {}
  }
}