{
  "contractName": "LotteryChallenge",
  "abi": [
    {
      "inputs": [],
      "payable": true,
      "stateMutability": "payable",
      "type": "constructor"
    },
    {
      "constant": true,
      "inputs": [],
      "name": "isComplete",
      "outputs": [
        {
          "name": "",
          "type": "bool"
        }
      ],
      "payable": false,
      "stateMutability": "view",
      "type": "function"
    },
    {
      "constant": false,
      "inputs": [
        {
          "name": "n",
          "type": "uint8"
        }
      ],
      "name": "guess",
      "outputs": [],
      "payable": true,
      "stateMutability": "payable",
      "type": "function"
    }
  ],
  "bytecode": "0x6080604052670de0b6b3a76400003414151561001a57600080fd5b600143034042604051808360001916600019168152602001828152602001925050506040518091039020600190046000806101000a81548160ff021916908360ff160217905550610175806100706000396000f30060806040526004361061004c576000357c0100000000000000000000000000000000000000000000000000000000900463ffffffff1680634ba4c16b14610051578063b2fa1c9e14610074575b600080fd5b610072600480360381019080803560ff1690602001909291905050506100a3565b005b34801561008057600080fd5b50610089610128565b604051808215151515815260200191505060405180910390f35b670de0b6b3a7640000341415156100b957600080fd5b6000809054906101000a900460ff1660ff168160ff161415610125573373ffffffffffffffffffffffffffffffffffffffff166108fc671bc16d674ec800009081150290604051600060405180830381858888f19350505050158015610123573d6000803e3d6000fd5b505b50565b6000803073ffffffffffffffffffffffffffffffffffffffff1631149050905600a165627a7a7230582040389b79d84f900e96526a90be44133774b663cb0b9bc0eb8aed9b47d7153f270029",
  "source": "pragma solidity ^0.4.21;\r\n\r\ncontract LotteryChallenge {\r\n    uint8 answer;\r\n\r\n    constructor() public payable {\r\n        require(msg.value == 1 ether);\r\n        answer = uint8(keccak256(blockhash(block.number - 1), now));\r\n    }\r\n\r\n    function isComplete() public view returns (bool) {\r\n        return address(this).balance == 0;\r\n    }\r\n\r\n    function guess(uint8 n) public payable {\r\n        require(msg.value == 1 ether);\r\n\r\n        if (n == answer) {\r\n            msg.sender.transfer(2 ether);\r\n        }\r\n    }\r\n}",
  "sourcePath": "C:\\Users\\juli-\\CTF Blockchain\\SmartContractCTF\\contracts\\LotteryChallenge.sol",
  "compiler": {
    "name": "solc",
    "version": "0.4.26+commit.4563c3fc.Emscripten.clang"
  },
  "schemaVersion": "3.4.4",
  "updatedAt": "2022-01-17T19:23:40.069Z",
  "devdoc": {
    "methods": {}
  },
  "userdoc": {
    "methods": {}
  }
}